{
  "_format": "hh-sol-artifact-1",
  "contractName": "PayPerView",
  "sourceName": "contracts/PayPerView.sol",
  "abi": [
    {
      "anonymous": false,
      "inputs": [
        {
          "indexed": true,
          "internalType": "uint256",
          "name": "videoId",
          "type": "uint256"
        },
        {
          "indexed": true,
          "internalType": "address",
          "name": "viewer",
          "type": "address"
        },
        {
          "indexed": false,
          "internalType": "uint256",
          "name": "unlockTime",
          "type": "uint256"
        }
      ],
      "name": "PaidToView",
      "type": "event"
    },
    {
      "anonymous": false,
      "inputs": [
        {
          "indexed": true,
          "internalType": "uint256",
          "name": "videoId",
          "type": "uint256"
        },
        {
          "indexed": true,
          "internalType": "address",
          "name": "uploader",
          "type": "address"
        },
        {
          "indexed": false,
          "internalType": "string",
          "name": "videoHash",
          "type": "string"
        },
        {
          "indexed": false,
          "internalType": "string",
          "name": "thumbnailHash",
          "type": "string"
        },
        {
          "indexed": false,
          "internalType": "uint256",
          "name": "price",
          "type": "uint256"
        },
        {
          "indexed": false,
          "internalType": "uint256",
          "name": "displayTime",
          "type": "uint256"
        }
      ],
      "name": "VideoUploaded",
      "type": "event"
    },
    {
      "inputs": [
        {
          "internalType": "uint256",
          "name": "videoId",
          "type": "uint256"
        },
        {
          "internalType": "address",
          "name": "user",
          "type": "address"
        }
      ],
      "name": "canView",
      "outputs": [
        {
          "internalType": "bool",
          "name": "",
          "type": "bool"
        }
      ],
      "stateMutability": "view",
      "type": "function"
    },
    {
      "inputs": [],
      "name": "getVideos",
      "outputs": [
        {
          "internalType": "address[]",
          "name": "uploaders",
          "type": "address[]"
        },
        {
          "internalType": "string[]",
          "name": "videoHashes",
          "type": "string[]"
        },
        {
          "internalType": "string[]",
          "name": "thumbnailHashes",
          "type": "string[]"
        },
        {
          "internalType": "uint256[]",
          "name": "prices",
          "type": "uint256[]"
        },
        {
          "internalType": "uint256[]",
          "name": "displayTimes",
          "type": "uint256[]"
        }
      ],
      "stateMutability": "view",
      "type": "function"
    },
    {
      "inputs": [
        {
          "internalType": "uint256",
          "name": "videoId",
          "type": "uint256"
        }
      ],
      "name": "payToView",
      "outputs": [],
      "stateMutability": "payable",
      "type": "function"
    },
    {
      "inputs": [
        {
          "internalType": "string",
          "name": "_videoHash",
          "type": "string"
        },
        {
          "internalType": "string",
          "name": "_thumbnailHash",
          "type": "string"
        },
        {
          "internalType": "uint256",
          "name": "_price",
          "type": "uint256"
        },
        {
          "internalType": "uint256",
          "name": "_displayTime",
          "type": "uint256"
        }
      ],
      "name": "uploadVideo",
      "outputs": [],
      "stateMutability": "nonpayable",
      "type": "function"
    },
    {
      "inputs": [
        {
          "internalType": "uint256",
          "name": "",
          "type": "uint256"
        }
      ],
      "name": "videos",
      "outputs": [
        {
          "internalType": "address",
          "name": "uploader",
          "type": "address"
        },
        {
          "internalType": "string",
          "name": "videoHash",
          "type": "string"
        },
        {
          "internalType": "string",
          "name": "thumbnailHash",
          "type": "string"
        },
        {
          "internalType": "uint256",
          "name": "price",
          "type": "uint256"
        },
        {
          "internalType": "uint256",
          "name": "displayTime",
          "type": "uint256"
        }
      ],
      "stateMutability": "view",
      "type": "function"
    },
    {
      "inputs": [
        {
          "internalType": "uint256",
          "name": "",
          "type": "uint256"
        },
        {
          "internalType": "address",
          "name": "",
          "type": "address"
        }
      ],
      "name": "viewUnlockTime",
      "outputs": [
        {
          "internalType": "uint256",
          "name": "",
          "type": "uint256"
        }
      ],
      "stateMutability": "view",
      "type": "function"
    }
  ],
  "bytecode": "0x608060405234801561001057600080fd5b50611854806100206000396000f3fe6080604052600436106100555760003560e01c806368f2d1651461005a57806399d121eb14610089578063b06231f3146100a5578063ca230b26146100e2578063cedb319c1461011f578063e6821bf514610148575b600080fd5b34801561006657600080fd5b5061006f610189565b604051610080959493929190610eca565b60405180910390f35b6100a3600480360381019061009e9190610f80565b610578565b005b3480156100b157600080fd5b506100cc60048036038101906100c79190610fd9565b61079d565b6040516100d99190611028565b60405180910390f35b3480156100ee57600080fd5b5061010960048036038101906101049190610fd9565b6107c2565b604051610116919061105e565b60405180910390f35b34801561012b57600080fd5b50610146600480360381019061014191906111ae565b6108ed565b005b34801561015457600080fd5b5061016f600480360381019061016a9190610f80565b610a4a565b6040516101809594939291906112a6565b60405180910390f35b60608060608060606000808054905090508067ffffffffffffffff8111156101b4576101b3611083565b5b6040519080825280602002602001820160405280156101e25781602001602082028036833780820191505090505b5095508067ffffffffffffffff8111156101ff576101fe611083565b5b60405190808252806020026020018201604052801561023257816020015b606081526020019060019003908161021d5790505b5094508067ffffffffffffffff81111561024f5761024e611083565b5b60405190808252806020026020018201604052801561028257816020015b606081526020019060019003908161026d5790505b5093508067ffffffffffffffff81111561029f5761029e611083565b5b6040519080825280602002602001820160405280156102cd5781602001602082028036833780820191505090505b5092508067ffffffffffffffff8111156102ea576102e9611083565b5b6040519080825280602002602001820160405280156103185781602001602082028036833780820191505090505b50915060005b8181101561056f57600080828154811061033b5761033a611307565b5b906000526020600020906005020190508060000160009054906101000a900473ffffffffffffffffffffffffffffffffffffffff1688838151811061038357610382611307565b5b602002602001019073ffffffffffffffffffffffffffffffffffffffff16908173ffffffffffffffffffffffffffffffffffffffff16815250508060010180546103cc90611365565b80601f01602080910402602001604051908101604052809291908181526020018280546103f890611365565b80156104455780601f1061041a57610100808354040283529160200191610445565b820191906000526020600020905b81548152906001019060200180831161042857829003601f168201915b505050505087838151811061045d5761045c611307565b5b602002602001018190525080600201805461047790611365565b80601f01602080910402602001604051908101604052809291908181526020018280546104a390611365565b80156104f05780601f106104c5576101008083540402835291602001916104f0565b820191906000526020600020905b8154815290600101906020018083116104d357829003601f168201915b505050505086838151811061050857610507611307565b5b6020026020010181905250806003015485838151811061052b5761052a611307565b5b602002602001018181525050806004015484838151811061054f5761054e611307565b5b602002602001018181525050508080610567906113c5565b91505061031e565b50509091929394565b60008054905081106105bf576040517f08c379a00000000000000000000000000000000000000000000000000000000081526004016105b690611459565b60405180910390fd5b60008082815481106105d4576105d3611307565b5b90600052602060002090600502019050806003015434101561062b576040517f08c379a0000000000000000000000000000000000000000000000000000000008152600401610622906114c5565b60405180910390fd5b80600401544261063b91906114e5565b6001600084815260200190815260200160002060003373ffffffffffffffffffffffffffffffffffffffff1673ffffffffffffffffffffffffffffffffffffffff168152602001908152602001600020819055508060000160009054906101000a900473ffffffffffffffffffffffffffffffffffffffff1673ffffffffffffffffffffffffffffffffffffffff166108fc349081150290604051600060405180830381858888f193505050501580156106f9573d6000803e3d6000fd5b503373ffffffffffffffffffffffffffffffffffffffff16827f7141feaee706b17545eb1660d407057e67cd9893e98fded34624cd3c2bb2e6856001600086815260200190815260200160002060003373ffffffffffffffffffffffffffffffffffffffff1673ffffffffffffffffffffffffffffffffffffffff168152602001908152602001600020546040516107919190611028565b60405180910390a35050565b6001602052816000526040600020602052806000526040600020600091509150505481565b60008080549050831061080a576040517f08c379a000000000000000000000000000000000000000000000000000000000815260040161080190611459565b60405180910390fd5b600080848154811061081f5761081e611307565b5b906000526020600020906005020190508060000160009054906101000a900473ffffffffffffffffffffffffffffffffffffffff1673ffffffffffffffffffffffffffffffffffffffff168373ffffffffffffffffffffffffffffffffffffffff16036108905760019150506108e7565b426001600086815260200190815260200160002060008573ffffffffffffffffffffffffffffffffffffffff1673ffffffffffffffffffffffffffffffffffffffff16815260200190815260200160002054119150505b92915050565b60006040518060a001604052803373ffffffffffffffffffffffffffffffffffffffff16815260200186815260200185815260200184815260200183815250908060018154018082558091505060019003906000526020600020906005020160009091909190915060008201518160000160006101000a81548173ffffffffffffffffffffffffffffffffffffffff021916908373ffffffffffffffffffffffffffffffffffffffff16021790555060208201518160010190816109b191906116c5565b5060408201518160020190816109c791906116c5565b50606082015181600301556080820151816004015550503373ffffffffffffffffffffffffffffffffffffffff166001600080549050610a079190611797565b7f23dea660f5473b2cce23625ae2aa535731ca87995f3fbc33921e7b2db446184b86868686604051610a3c94939291906117cb565b60405180910390a350505050565b60008181548110610a5a57600080fd5b90600052602060002090600502016000915090508060000160009054906101000a900473ffffffffffffffffffffffffffffffffffffffff1690806001018054610aa390611365565b80601f0160208091040260200160405190810160405280929190818152602001828054610acf90611365565b8015610b1c5780601f10610af157610100808354040283529160200191610b1c565b820191906000526020600020905b815481529060010190602001808311610aff57829003601f168201915b505050505090806002018054610b3190611365565b80601f0160208091040260200160405190810160405280929190818152602001828054610b5d90611365565b8015610baa5780601f10610b7f57610100808354040283529160200191610baa565b820191906000526020600020905b815481529060010190602001808311610b8d57829003601f168201915b5050505050908060030154908060040154905085565b600081519050919050565b600082825260208201905092915050565b6000819050602082019050919050565b600073ffffffffffffffffffffffffffffffffffffffff82169050919050565b6000610c1782610bec565b9050919050565b610c2781610c0c565b82525050565b6000610c398383610c1e565b60208301905092915050565b6000602082019050919050565b6000610c5d82610bc0565b610c678185610bcb565b9350610c7283610bdc565b8060005b83811015610ca3578151610c8a8882610c2d565b9750610c9583610c45565b925050600181019050610c76565b5085935050505092915050565b600081519050919050565b600082825260208201905092915050565b6000819050602082019050919050565b600081519050919050565b600082825260208201905092915050565b60005b83811015610d16578082015181840152602081019050610cfb565b60008484015250505050565b6000601f19601f8301169050919050565b6000610d3e82610cdc565b610d488185610ce7565b9350610d58818560208601610cf8565b610d6181610d22565b840191505092915050565b6000610d788383610d33565b905092915050565b6000602082019050919050565b6000610d9882610cb0565b610da28185610cbb565b935083602082028501610db485610ccc565b8060005b85811015610df05784840389528151610dd18582610d6c565b9450610ddc83610d80565b925060208a01995050600181019050610db8565b50829750879550505050505092915050565b600081519050919050565b600082825260208201905092915050565b6000819050602082019050919050565b6000819050919050565b610e4181610e2e565b82525050565b6000610e538383610e38565b60208301905092915050565b6000602082019050919050565b6000610e7782610e02565b610e818185610e0d565b9350610e8c83610e1e565b8060005b83811015610ebd578151610ea48882610e47565b9750610eaf83610e5f565b925050600181019050610e90565b5085935050505092915050565b600060a0820190508181036000830152610ee48188610c52565b90508181036020830152610ef88187610d8d565b90508181036040830152610f0c8186610d8d565b90508181036060830152610f208185610e6c565b90508181036080830152610f348184610e6c565b90509695505050505050565b6000604051905090565b600080fd5b600080fd5b610f5d81610e2e565b8114610f6857600080fd5b50565b600081359050610f7a81610f54565b92915050565b600060208284031215610f9657610f95610f4a565b5b6000610fa484828501610f6b565b91505092915050565b610fb681610c0c565b8114610fc157600080fd5b50565b600081359050610fd381610fad565b92915050565b60008060408385031215610ff057610fef610f4a565b5b6000610ffe85828601610f6b565b925050602061100f85828601610fc4565b9150509250929050565b61102281610e2e565b82525050565b600060208201905061103d6000830184611019565b92915050565b60008115159050919050565b61105881611043565b82525050565b6000602082019050611073600083018461104f565b92915050565b600080fd5b600080fd5b7f4e487b7100000000000000000000000000000000000000000000000000000000600052604160045260246000fd5b6110bb82610d22565b810181811067ffffffffffffffff821117156110da576110d9611083565b5b80604052505050565b60006110ed610f40565b90506110f982826110b2565b919050565b600067ffffffffffffffff82111561111957611118611083565b5b61112282610d22565b9050602081019050919050565b82818337600083830152505050565b600061115161114c846110fe565b6110e3565b90508281526020810184848401111561116d5761116c61107e565b5b61117884828561112f565b509392505050565b600082601f83011261119557611194611079565b5b81356111a584826020860161113e565b91505092915050565b600080600080608085870312156111c8576111c7610f4a565b5b600085013567ffffffffffffffff8111156111e6576111e5610f4f565b5b6111f287828801611180565b945050602085013567ffffffffffffffff81111561121357611212610f4f565b5b61121f87828801611180565b935050604061123087828801610f6b565b925050606061124187828801610f6b565b91505092959194509250565b61125681610c0c565b82525050565b600082825260208201905092915050565b600061127882610cdc565b611282818561125c565b9350611292818560208601610cf8565b61129b81610d22565b840191505092915050565b600060a0820190506112bb600083018861124d565b81810360208301526112cd818761126d565b905081810360408301526112e1818661126d565b90506112f06060830185611019565b6112fd6080830184611019565b9695505050505050565b7f4e487b7100000000000000000000000000000000000000000000000000000000600052603260045260246000fd5b7f4e487b7100000000000000000000000000000000000000000000000000000000600052602260045260246000fd5b6000600282049050600182168061137d57607f821691505b6020821081036113905761138f611336565b5b50919050565b7f4e487b7100000000000000000000000000000000000000000000000000000000600052601160045260246000fd5b60006113d082610e2e565b91507fffffffffffffffffffffffffffffffffffffffffffffffffffffffffffffffff820361140257611401611396565b5b600182019050919050565b7f496e76616c696420766964656f49640000000000000000000000000000000000600082015250565b6000611443600f8361125c565b915061144e8261140d565b602082019050919050565b6000602082019050818103600083015261147281611436565b9050919050565b7f496e73756666696369656e74207061796d656e74000000000000000000000000600082015250565b60006114af60148361125c565b91506114ba82611479565b602082019050919050565b600060208201905081810360008301526114de816114a2565b9050919050565b60006114f082610e2e565b91506114fb83610e2e565b925082820190508082111561151357611512611396565b5b92915050565b60008190508160005260206000209050919050565b60006020601f8301049050919050565b600082821b905092915050565b60006008830261157b7fffffffffffffffffffffffffffffffffffffffffffffffffffffffffffffffff8261153e565b611585868361153e565b95508019841693508086168417925050509392505050565b6000819050919050565b60006115c26115bd6115b884610e2e565b61159d565b610e2e565b9050919050565b6000819050919050565b6115dc836115a7565b6115f06115e8826115c9565b84845461154b565b825550505050565b600090565b6116056115f8565b6116108184846115d3565b505050565b5b81811015611634576116296000826115fd565b600181019050611616565b5050565b601f8211156116795761164a81611519565b6116538461152e565b81016020851015611662578190505b61167661166e8561152e565b830182611615565b50505b505050565b600082821c905092915050565b600061169c6000198460080261167e565b1980831691505092915050565b60006116b5838361168b565b9150826002028217905092915050565b6116ce82610cdc565b67ffffffffffffffff8111156116e7576116e6611083565b5b6116f18254611365565b6116fc828285611638565b600060209050601f83116001811461172f576000841561171d578287015190505b61172785826116a9565b86555061178f565b601f19841661173d86611519565b60005b8281101561176557848901518255600182019150602085019450602081019050611740565b86831015611782578489015161177e601f89168261168b565b8355505b6001600288020188555050505b505050505050565b60006117a282610e2e565b91506117ad83610e2e565b92508282039050818111156117c5576117c4611396565b5b92915050565b600060808201905081810360008301526117e5818761126d565b905081810360208301526117f9818661126d565b90506118086040830185611019565b6118156060830184611019565b9594505050505056fea26469706673582212201c206802934baf3f3ad64197a63e18fcc87d8ad8d249d11db106f949058f564064736f6c63430008130033",
  "linkReferences": {},
  "deployedLinkReferences": {}
}